{
  "contractName": "TeSCRegistryImplementation",
  "abi": [
    {
      "anonymous": false,
      "inputs": [
        {
          "indexed": false,
          "internalType": "string",
          "name": "domain",
          "type": "string"
        },
        {
          "indexed": true,
          "internalType": "address",
          "name": "contractAddr",
          "type": "address"
        },
        {
          "indexed": false,
          "internalType": "enum TeSCRegistry.EventType",
          "name": "eventType",
          "type": "uint8"
        }
      ],
      "name": "RegistryChanged",
      "type": "event"
    },
    {
      "inputs": [
        {
          "internalType": "string",
          "name": "_domain",
          "type": "string"
        },
        {
          "internalType": "address",
          "name": "_contractAddr",
          "type": "address"
        }
      ],
      "name": "add",
      "outputs": [],
      "stateMutability": "nonpayable",
      "type": "function"
    },
    {
      "inputs": [
        {
          "internalType": "string",
          "name": "_domain",
          "type": "string"
        },
        {
          "internalType": "address",
          "name": "_contractAddr",
          "type": "address"
        }
      ],
      "name": "remove",
      "outputs": [],
      "stateMutability": "nonpayable",
      "type": "function"
    },
    {
      "inputs": [
        {
          "internalType": "string",
          "name": "_domain",
          "type": "string"
        }
      ],
      "name": "getContractsFromDomain",
      "outputs": [
        {
          "internalType": "address[]",
          "name": "",
          "type": "address[]"
        }
      ],
      "stateMutability": "view",
      "type": "function"
    },
    {
      "inputs": [
        {
          "internalType": "address",
          "name": "_contractAddr",
          "type": "address"
        }
      ],
      "name": "isContractRegistered",
      "outputs": [
        {
          "internalType": "bool",
          "name": "",
          "type": "bool"
        }
      ],
      "stateMutability": "view",
      "type": "function"
    }
  ],
  "bytecode": "0x608060405234801561001057600080fd5b50610efb806100206000396000f3fe608060405234801561001057600080fd5b506004361061004c5760003560e01c806328bb2117146100515780632bffc7ed146100ea578063f4a0d49314610183578063f9f6b49b14610251575b600080fd5b6100e86004803603604081101561006757600080fd5b810190808035906020019064010000000081111561008457600080fd5b82018360208201111561009657600080fd5b803590602001918460018302840111640100000000831117156100b857600080fd5b9091929391929390803573ffffffffffffffffffffffffffffffffffffffff1690602001909291905050506102ab565b005b6101816004803603604081101561010057600080fd5b810190808035906020019064010000000081111561011d57600080fd5b82018360208201111561012f57600080fd5b8035906020019184600183028401116401000000008311171561015157600080fd5b9091929391929390803573ffffffffffffffffffffffffffffffffffffffff1690602001909291905050506106fc565b005b6101fa6004803603602081101561019957600080fd5b81019080803590602001906401000000008111156101b657600080fd5b8201836020820111156101c857600080fd5b803590602001918460018302840111640100000000831117156101ea57600080fd5b9091929391929390505050610d83565b6040518080602001828103825283818151815260200191508051906020019060200280838360005b8381101561023d578082015181840152602081019050610222565b505050509050019250505060405180910390f35b6102936004803603602081101561026757600080fd5b81019080803573ffffffffffffffffffffffffffffffffffffffff169060200190929190505050610e39565b60405180821515815260200191505060405180910390f35b3373ffffffffffffffffffffffffffffffffffffffff1660008484604051808383808284378083019250505092505050908152602001604051809103902060008373ffffffffffffffffffffffffffffffffffffffff1673ffffffffffffffffffffffffffffffffffffffff16815260200190815260200160002060009054906101000a900473ffffffffffffffffffffffffffffffffffffffff1673ffffffffffffffffffffffffffffffffffffffff161461036757600080fd5b600060018484604051808383808284378083019250505092505050908152602001604051809103902090506000816001838054905003815481106103a757fe5b9060005260206000200160009054906101000a900473ffffffffffffffffffffffffffffffffffffffff1690506000600360008573ffffffffffffffffffffffffffffffffffffffff1673ffffffffffffffffffffffffffffffffffffffff16815260200190815260200160002054905060006003600085848154811061042a57fe5b9060005260206000200160009054906101000a900473ffffffffffffffffffffffffffffffffffffffff1673ffffffffffffffffffffffffffffffffffffffff1673ffffffffffffffffffffffffffffffffffffffff1681526020019081526020016000208190555080600360008473ffffffffffffffffffffffffffffffffffffffff1673ffffffffffffffffffffffffffffffffffffffff16815260200190815260200160002081905550818382815481106104e457fe5b9060005260206000200160006101000a81548173ffffffffffffffffffffffffffffffffffffffff021916908373ffffffffffffffffffffffffffffffffffffffff1602179055508280548061053657fe5b6001900381819060005260206000200160006101000a81549073ffffffffffffffffffffffffffffffffffffffff021916905590556000808787604051808383808284378083019250505092505050908152602001604051809103902060008673ffffffffffffffffffffffffffffffffffffffff1673ffffffffffffffffffffffffffffffffffffffff16815260200190815260200160002060006101000a81548173ffffffffffffffffffffffffffffffffffffffff021916908373ffffffffffffffffffffffffffffffffffffffff1602179055506000600260008673ffffffffffffffffffffffffffffffffffffffff1673ffffffffffffffffffffffffffffffffffffffff16815260200190815260200160002060006101000a81548160ff0219169083151502179055508373ffffffffffffffffffffffffffffffffffffffff167f53d7c709ca2fe5eedb29c6a8d6f7b1933d5747bb3f0bd46457986ce9e46726698787600160405180806020018360018111156106b657fe5b81526020018281038252858582818152602001925080828437600081840152601f19601f82011690508083019250505094505050505060405180910390a2505050505050565b8073ffffffffffffffffffffffffffffffffffffffff166301ffc9a763d7de90436040518263ffffffff1660e01b8152600401808260e01b815260200191505060206040518083038186803b15801561075457600080fd5b505afa158015610768573d6000803e3d6000fd5b505050506040513d602081101561077e57600080fd5b810190808051906020019092919050505061079857600080fd5b60008173ffffffffffffffffffffffffffffffffffffffff16636cc7149d6040518163ffffffff1660e01b8152600401602060405180830381600087803b1580156107e257600080fd5b505af11580156107f6573d6000803e3d6000fd5b505050506040513d602081101561080c57600080fd5b8101908080519060200190929190505050905061082a816000610e8f565b61083357600080fd5b60608273ffffffffffffffffffffffffffffffffffffffff1663b68d18096040518163ffffffff1660e01b815260040160006040518083038186803b15801561087b57600080fd5b505afa15801561088f573d6000803e3d6000fd5b505050506040513d6000823e3d601f19601f8201168201806040525060208110156108b957600080fd5b81019080805160405193929190846401000000008211156108d957600080fd5b838201915060208201858111156108ef57600080fd5b825186600182028301116401000000008211171561090c57600080fd5b8083526020830192505050908051906020019080838360005b83811015610940578082015181840152602081019050610925565b50505050905090810190601f16801561096d5780820380516001836020036101000a031916815260200191505b506040525050509050848460405160200180838380828437808301925050509250505060405160208183030381529060405280519060200120816040516020018082805190602001908083835b602083106109dd57805182526020820191506020810190506020830392506109ba565b6001836020036101000a0380198251168184511680821785525050505050509050019150506040516020818303038152906040528051906020012014610a2257600080fd5b428373ffffffffffffffffffffffffffffffffffffffff1663f61c266b6040518163ffffffff1660e01b8152600401602060405180830381600087803b158015610a6b57600080fd5b505af1158015610a7f573d6000803e3d6000fd5b505050506040513d6020811015610a9557600080fd5b810190808051906020019092919050505067ffffffffffffffff1611610aba57600080fd5b60001515600260008573ffffffffffffffffffffffffffffffffffffffff1673ffffffffffffffffffffffffffffffffffffffff16815260200190815260200160002060009054906101000a900460ff16151514610b1757600080fd5b3360008686604051808383808284378083019250505092505050908152602001604051809103902060008573ffffffffffffffffffffffffffffffffffffffff1673ffffffffffffffffffffffffffffffffffffffff16815260200190815260200160002060006101000a81548173ffffffffffffffffffffffffffffffffffffffff021916908373ffffffffffffffffffffffffffffffffffffffff1602179055506000600186866040518083838082843780830192505050925050509081526020016040518091039020905060008180549050905081859080600181540180825580915050600190039060005260206000200160009091909190916101000a81548173ffffffffffffffffffffffffffffffffffffffff021916908373ffffffffffffffffffffffffffffffffffffffff16021790555080600360008773ffffffffffffffffffffffffffffffffffffffff1673ffffffffffffffffffffffffffffffffffffffff168152602001908152602001600020819055506001600260008773ffffffffffffffffffffffffffffffffffffffff1673ffffffffffffffffffffffffffffffffffffffff16815260200190815260200160002060006101000a81548160ff0219169083151502179055508473ffffffffffffffffffffffffffffffffffffffff167f53d7c709ca2fe5eedb29c6a8d6f7b1933d5747bb3f0bd46457986ce9e4672669888860006040518080602001836001811115610d3c57fe5b81526020018281038252858582818152602001925080828437600081840152601f19601f82011690508083019250505094505050505060405180910390a250505050505050565b6060600183836040518083838082843780830192505050925050509081526020016040518091039020805480602002602001604051908101604052809291908181526020018280548015610e2c57602002820191906000526020600020905b8160009054906101000a900473ffffffffffffffffffffffffffffffffffffffff1673ffffffffffffffffffffffffffffffffffffffff1681526020019060010190808311610de2575b5050505050905092915050565b6000600260008373ffffffffffffffffffffffffffffffffffffffff1673ffffffffffffffffffffffffffffffffffffffff16815260200190815260200160002060009054906101000a900460ff169050919050565b600080600160401b9050600060401b81848667ffffffffffffffff1916901c1667ffffffffffffffff191614159150509291505056fea2646970667358221220a930160be27093d788c3bde34a236039f1ea84b762793b08b3364f8916c6666764736f6c63430007050033",
  "immutableReferences": {},
  "source": "/** SPDX-License-Identifier: MIT */\r\npragma solidity ^0.7.5;\r\n\r\nimport \"./TeSC.sol\";\r\nimport \"./TeSCRegistry.sol\";\r\n\r\ncontract TeSCRegistryImplementation is TeSCRegistry {\r\n    // @notice Maps domain hash and contract address to address of account that added the entry\r\n    mapping(string => mapping(address => address)) private entryOwner;\r\n\r\n    // @notice Maps domain hash to addresses of all contracts that are linked to the domain\r\n    mapping(string => address[]) private domainToContracts;\r\n\r\n    // @notice Maps contract addresses included in the registry to true\r\n    mapping(address => bool) private registeredContracts;\r\n\r\n    // @notice Maps contract addresses to their index in domainToContracts\r\n    mapping(address => uint) private contractsToIndex;\r\n\r\n    function add(string calldata _domain, address _contractAddr) external override {\r\n        require(TeSC(_contractAddr).supportsInterface(0xd7de9043));\r\n        bytes24 flags = TeSC(_contractAddr).getFlags();\r\n        require(isFlagSet(flags, 0));\r\n        string memory contractDomain = TeSC(_contractAddr).getDomain();\r\n        require(keccak256(abi.encodePacked(contractDomain)) == keccak256(abi.encodePacked(_domain)));\r\n        require(TeSC(_contractAddr).getExpiry() > block.timestamp);\r\n        require(registeredContracts[_contractAddr] == false);\r\n\r\n        entryOwner[_domain][_contractAddr] = msg.sender;\r\n        address[] storage arr = domainToContracts[_domain];\r\n        uint indexOfNewContract = arr.length;\r\n        arr.push(_contractAddr);\r\n        contractsToIndex[_contractAddr] = indexOfNewContract;\r\n        registeredContracts[_contractAddr] = true;\r\n\r\n        emit RegistryChanged(_domain, _contractAddr, EventType.Add);\r\n    }\r\n\r\n    function remove(string calldata _domain, address _contractAddr) external override {\r\n        require(entryOwner[_domain][_contractAddr] == msg.sender);\r\n\r\n        address[] storage arr = domainToContracts[_domain];\r\n        address replacement = arr[arr.length - 1];\r\n        uint index = contractsToIndex[_contractAddr];\r\n        contractsToIndex[arr[index]] = 0;\r\n        contractsToIndex[replacement] = index;\r\n        arr[index] = replacement;\r\n        arr.pop();\r\n\r\n        entryOwner[_domain][_contractAddr] = address(0);\r\n        registeredContracts[_contractAddr] = false;\r\n        emit RegistryChanged(_domain, _contractAddr, EventType.Remove);\r\n    }\r\n\r\n    function getContractsFromDomain(string calldata _domain) external override view returns (address[] memory) {\r\n        return domainToContracts[_domain];\r\n    }\r\n\r\n    function isContractRegistered(address _contractAddr) external override view returns (bool) {\r\n        return registeredContracts[_contractAddr];\r\n    }\r\n\r\n    function isFlagSet(bytes24 b, uint pos) internal pure returns (bool) {\r\n        bytes24 one = 0x000000000000000000000000000000000000000000000001;\r\n        return ((b >> pos) & one) != 0;\r\n    }\r\n}\r\n",
  "sourcePath": "D:/Home/Workspace/blockchain/tum-sebalab-tesc/TeSC-Frontend-New/src/ethereum/contracts/registry/TeSCRegistryImplementation.sol",
  "compiler": {
    "name": "solc",
    "version": "0.7.5+commit.eb77ed08.Emscripten.clang"
  },
  "schemaVersion": "3.3.2",
  "updatedAt": "2021-01-08T16:31:33.348Z",
  "devdoc": {
    "kind": "dev",
    "methods": {},
    "version": 1
  },
  "userdoc": {
    "kind": "user",
    "methods": {},
    "version": 1
  }
}