{
  "contractName": "TeSCRegistryImplementation",
  "abi": [
    {
      "anonymous": false,
      "inputs": [
        {
          "indexed": false,
          "internalType": "string",
          "name": "domain",
          "type": "string"
        },
        {
          "indexed": true,
          "internalType": "address",
          "name": "contractAddr",
          "type": "address"
        },
        {
          "indexed": false,
          "internalType": "enum TeSCRegistry.EventType",
          "name": "eventType",
          "type": "uint8"
        }
      ],
      "name": "RegistryChanged",
      "type": "event"
    },
    {
      "inputs": [
        {
          "internalType": "address",
          "name": "_contractAddr",
          "type": "address"
        }
      ],
      "name": "add",
      "outputs": [],
      "stateMutability": "nonpayable",
      "type": "function"
    },
    {
      "inputs": [
        {
          "internalType": "string",
          "name": "_domain",
          "type": "string"
        },
        {
          "internalType": "address",
          "name": "_contractAddr",
          "type": "address"
        }
      ],
      "name": "remove",
      "outputs": [],
      "stateMutability": "nonpayable",
      "type": "function"
    },
    {
      "inputs": [
        {
          "internalType": "string",
          "name": "_domain",
          "type": "string"
        }
      ],
      "name": "getContractsFromDomain",
      "outputs": [
        {
          "internalType": "address[]",
          "name": "",
          "type": "address[]"
        }
      ],
      "stateMutability": "view",
      "type": "function"
    },
    {
      "inputs": [
        {
          "internalType": "address",
          "name": "_contractAddr",
          "type": "address"
        }
      ],
      "name": "isContractRegistered",
      "outputs": [
        {
          "internalType": "bool",
          "name": "",
          "type": "bool"
        }
      ],
      "stateMutability": "view",
      "type": "function"
    }
  ],
  "bytecode": "0x608060405234801561001057600080fd5b5061125e806100206000396000f3fe608060405234801561001057600080fd5b506004361061004c5760003560e01c80630a3b0a4f1461005157806328bb211714610095578063f4a0d4931461012e578063f9f6b49b146101fc575b600080fd5b6100936004803603602081101561006757600080fd5b81019080803573ffffffffffffffffffffffffffffffffffffffff169060200190929190505050610256565b005b61012c600480360360408110156100ab57600080fd5b81019080803590602001906401000000008111156100c857600080fd5b8201836020820111156100da57600080fd5b803590602001918460018302840111640100000000831117156100fc57600080fd5b9091929391929390803573ffffffffffffffffffffffffffffffffffffffff169060200190929190505050610a1c565b005b6101a56004803603602081101561014457600080fd5b810190808035906020019064010000000081111561016157600080fd5b82018360208201111561017357600080fd5b8035906020019184600183028401116401000000008311171561019557600080fd5b9091929391929390505050610f62565b6040518080602001828103825283818151815260200191508051906020019060200280838360005b838110156101e85780820151818401526020810190506101cd565b505050509050019250505060405180910390f35b61023e6004803603602081101561021257600080fd5b81019080803573ffffffffffffffffffffffffffffffffffffffff169060200190929190505050611018565b60405180821515815260200191505060405180910390f35b8073ffffffffffffffffffffffffffffffffffffffff166301ffc9a763d7de90436040518263ffffffff1660e01b8152600401808260e01b815260200191505060206040518083038186803b1580156102ae57600080fd5b505afa1580156102c2573d6000803e3d6000fd5b505050506040513d60208110156102d857600080fd5b810190808051906020019092919050505061033e576040517f08c379a000000000000000000000000000000000000000000000000000000000815260040180806020018281038252603f815260200180611155603f913960400191505060405180910390fd5b60008173ffffffffffffffffffffffffffffffffffffffff16636cc7149d6040518163ffffffff1660e01b8152600401602060405180830381600087803b15801561038857600080fd5b505af115801561039c573d6000803e3d6000fd5b505050506040513d60208110156103b257600080fd5b810190808051906020019092919050505090506103d081600061106e565b610425576040517f08c379a00000000000000000000000000000000000000000000000000000000081526004018080602001828103825260408152602001806111e96040913960400191505060405180910390fd5b428273ffffffffffffffffffffffffffffffffffffffff1663f61c266b6040518163ffffffff1660e01b8152600401602060405180830381600087803b15801561046e57600080fd5b505af1158015610482573d6000803e3d6000fd5b505050506040513d602081101561049857600080fd5b810190808051906020019092919050505067ffffffffffffffff1611610509576040517f08c379a00000000000000000000000000000000000000000000000000000000081526004018080602001828103825260368152602001806110a56036913960400191505060405180910390fd5b60001515600260008473ffffffffffffffffffffffffffffffffffffffff1673ffffffffffffffffffffffffffffffffffffffff16815260200190815260200160002060009054906101000a900460ff161515146105b2576040517f08c379a000000000000000000000000000000000000000000000000000000000815260040180806020018281038252603d815260200180611118603d913960400191505060405180910390fd5b60608273ffffffffffffffffffffffffffffffffffffffff1663b68d18096040518163ffffffff1660e01b815260040160006040518083038186803b1580156105fa57600080fd5b505afa15801561060e573d6000803e3d6000fd5b505050506040513d6000823e3d601f19601f82011682018060405250602081101561063857600080fd5b810190808051604051939291908464010000000082111561065857600080fd5b8382019150602082018581111561066e57600080fd5b825186600182028301116401000000008211171561068b57600080fd5b8083526020830192505050908051906020019080838360005b838110156106bf5780820151818401526020810190506106a4565b50505050905090810190601f1680156106ec5780820380516001836020036101000a031916815260200191505b506040525050509050336000826040518082805190602001908083835b6020831061072c5780518252602082019150602081019050602083039250610709565b6001836020036101000a038019825116818451168082178552505050505050905001915050908152602001604051809103902060008573ffffffffffffffffffffffffffffffffffffffff1673ffffffffffffffffffffffffffffffffffffffff16815260200190815260200160002060006101000a81548173ffffffffffffffffffffffffffffffffffffffff021916908373ffffffffffffffffffffffffffffffffffffffff16021790555060006001826040518082805190602001908083835b6020831061081257805182526020820191506020810190506020830392506107ef565b6001836020036101000a0380198251168184511680821785525050505050509050019150509081526020016040518091039020905060008180549050905081859080600181540180825580915050600190039060005260206000200160009091909190916101000a81548173ffffffffffffffffffffffffffffffffffffffff021916908373ffffffffffffffffffffffffffffffffffffffff16021790555080600360008773ffffffffffffffffffffffffffffffffffffffff1673ffffffffffffffffffffffffffffffffffffffff168152602001908152602001600020819055506001600260008773ffffffffffffffffffffffffffffffffffffffff1673ffffffffffffffffffffffffffffffffffffffff16815260200190815260200160002060006101000a81548160ff0219169083151502179055508473ffffffffffffffffffffffffffffffffffffffff167f53d7c709ca2fe5eedb29c6a8d6f7b1933d5747bb3f0bd46457986ce9e4672669846000604051808060200183600181111561099d57fe5b8152602001828103825284818151815260200191508051906020019080838360005b838110156109da5780820151818401526020810190506109bf565b50505050905090810190601f168015610a075780820380516001836020036101000a031916815260200191505b50935050505060405180910390a25050505050565b60011515600260008373ffffffffffffffffffffffffffffffffffffffff1673ffffffffffffffffffffffffffffffffffffffff16815260200190815260200160002060009054906101000a900460ff16151514610ac5576040517f08c379a000000000000000000000000000000000000000000000000000000000815260040180806020018281038252603d8152602001806110db603d913960400191505060405180910390fd5b3373ffffffffffffffffffffffffffffffffffffffff1660008484604051808383808284378083019250505092505050908152602001604051809103902060008373ffffffffffffffffffffffffffffffffffffffff1673ffffffffffffffffffffffffffffffffffffffff16815260200190815260200160002060009054906101000a900473ffffffffffffffffffffffffffffffffffffffff1673ffffffffffffffffffffffffffffffffffffffff1614610bcd576040517f08c379a00000000000000000000000000000000000000000000000000000000081526004018080602001828103825260558152602001806111946055913960600191505060405180910390fd5b60006001848460405180838380828437808301925050509250505090815260200160405180910390209050600081600183805490500381548110610c0d57fe5b9060005260206000200160009054906101000a900473ffffffffffffffffffffffffffffffffffffffff1690506000600360008573ffffffffffffffffffffffffffffffffffffffff1673ffffffffffffffffffffffffffffffffffffffff168152602001908152602001600020549050600060036000858481548110610c9057fe5b9060005260206000200160009054906101000a900473ffffffffffffffffffffffffffffffffffffffff1673ffffffffffffffffffffffffffffffffffffffff1673ffffffffffffffffffffffffffffffffffffffff1681526020019081526020016000208190555080600360008473ffffffffffffffffffffffffffffffffffffffff1673ffffffffffffffffffffffffffffffffffffffff1681526020019081526020016000208190555081838281548110610d4a57fe5b9060005260206000200160006101000a81548173ffffffffffffffffffffffffffffffffffffffff021916908373ffffffffffffffffffffffffffffffffffffffff16021790555082805480610d9c57fe5b6001900381819060005260206000200160006101000a81549073ffffffffffffffffffffffffffffffffffffffff021916905590556000808787604051808383808284378083019250505092505050908152602001604051809103902060008673ffffffffffffffffffffffffffffffffffffffff1673ffffffffffffffffffffffffffffffffffffffff16815260200190815260200160002060006101000a81548173ffffffffffffffffffffffffffffffffffffffff021916908373ffffffffffffffffffffffffffffffffffffffff1602179055506000600260008673ffffffffffffffffffffffffffffffffffffffff1673ffffffffffffffffffffffffffffffffffffffff16815260200190815260200160002060006101000a81548160ff0219169083151502179055508373ffffffffffffffffffffffffffffffffffffffff167f53d7c709ca2fe5eedb29c6a8d6f7b1933d5747bb3f0bd46457986ce9e4672669878760016040518080602001836001811115610f1c57fe5b81526020018281038252858582818152602001925080828437600081840152601f19601f82011690508083019250505094505050505060405180910390a2505050505050565b606060018383604051808383808284378083019250505092505050908152602001604051809103902080548060200260200160405190810160405280929190818152602001828054801561100b57602002820191906000526020600020905b8160009054906101000a900473ffffffffffffffffffffffffffffffffffffffff1673ffffffffffffffffffffffffffffffffffffffff1681526020019060010190808311610fc1575b5050505050905092915050565b6000600260008373ffffffffffffffffffffffffffffffffffffffff1673ffffffffffffffffffffffffffffffffffffffff16815260200190815260200160002060009054906101000a900460ff169050919050565b600080600160401b9050600060401b81848667ffffffffffffffff1916901c1667ffffffffffffffff191614159150509291505056fe436f6e7472616374206e6f7420616464656420746f2072656769737472793a20656e646f7273656d656e742069732065787069726564436f6e7472616374206e6f742072656d6f7665642066726f6d2072656769737472793a206e6f7420636f6e7461696e656420696e207265676973747279436f6e7472616374206e6f7420616464656420746f2072656769737472793a20616c726561647920636f6e7461696e656420696e207265676973747279436f6e7472616374206e6f7420616464656420746f2072656769737472793a20646f6573206e6f7420737570706f7274205465534320696e74657266616365436f6e7472616374206e6f742072656d6f7665642066726f6d2072656769737472793a206f6e6c792073656e64657220746861742061646465642074686520636f6e74726163742063616e2072656d6f7665206974436f6e7472616374206e6f7420616464656420746f2072656769737472793a2073616e69747920666c61672028617420696e646578203029206e6f7420736574a26469706673582212208f0f3bf9e4b8bc473d71004fe19a395590bbec4ebdb77ac2e7cb26123bf5f07164736f6c63430007050033",
  "immutableReferences": {},
  "source": "/** SPDX-License-Identifier: MIT */\r\npragma solidity ^0.7.5;\r\n\r\nimport \"./TeSC.sol\";\r\nimport \"./TeSCRegistry.sol\";\r\n\r\ncontract TeSCRegistryImplementation is TeSCRegistry {\r\n    // @notice Maps domain hash and contract address to address of account that added the entry\r\n    mapping(string => mapping(address => address)) private entryOwner;\r\n\r\n    // @notice Maps domain hash to addresses of all contracts that are linked to the domain\r\n    mapping(string => address[]) private domainToContracts;\r\n\r\n    // @notice Maps contract addresses included in the registry to true\r\n    mapping(address => bool) private registeredContracts;\r\n\r\n    // @notice Maps contract addresses to their index in domainToContracts\r\n    mapping(address => uint) private contractsToIndex;\r\n\r\n    function add(address _contractAddr) external override {\r\n        require(TeSC(_contractAddr).supportsInterface(0xd7de9043), \"Contract not added to registry: does not support TeSC interface\");\r\n        bytes24 flags = TeSC(_contractAddr).getFlags();\r\n        require(isFlagSet(flags, 0), \"Contract not added to registry: sanity flag (at index 0) not set\");\r\n        require(TeSC(_contractAddr).getExpiry() > block.timestamp, \"Contract not added to registry: endorsement is expired\");\r\n        require(registeredContracts[_contractAddr] == false, \"Contract not added to registry: already contained in registry\");\r\n\r\n        string memory domain = TeSC(_contractAddr).getDomain();\r\n        entryOwner[domain][_contractAddr] = msg.sender;\r\n        address[] storage arr = domainToContracts[domain];\r\n        uint indexOfNewContract = arr.length;\r\n        arr.push(_contractAddr);\r\n        contractsToIndex[_contractAddr] = indexOfNewContract;\r\n        registeredContracts[_contractAddr] = true;\r\n\r\n        emit RegistryChanged(domain, _contractAddr, EventType.Add);\r\n    }\r\n\r\n    function remove(string calldata _domain, address _contractAddr) external override {\r\n        require(registeredContracts[_contractAddr] == true, \"Contract not removed from registry: not contained in registry\");\r\n        require(entryOwner[_domain][_contractAddr] == msg.sender, \"Contract not removed from registry: only sender that added the contract can remove it\");\r\n\r\n        address[] storage arr = domainToContracts[_domain];\r\n        address replacement = arr[arr.length - 1];\r\n        uint index = contractsToIndex[_contractAddr];\r\n        contractsToIndex[arr[index]] = 0;\r\n        contractsToIndex[replacement] = index;\r\n        arr[index] = replacement;\r\n        arr.pop();\r\n\r\n        entryOwner[_domain][_contractAddr] = address(0);\r\n        registeredContracts[_contractAddr] = false;\r\n        emit RegistryChanged(_domain, _contractAddr, EventType.Remove);\r\n    }\r\n\r\n    function getContractsFromDomain(string calldata _domain) external override view returns (address[] memory) {\r\n        return domainToContracts[_domain];\r\n    }\r\n\r\n    function isContractRegistered(address _contractAddr) external override view returns (bool) {\r\n        return registeredContracts[_contractAddr];\r\n    }\r\n\r\n    function isFlagSet(bytes24 b, uint pos) internal pure returns (bool) {\r\n        bytes24 one = 0x000000000000000000000000000000000000000000000001;\r\n        return ((b >> pos) & one) != 0;\r\n    }\r\n}\r\n",
  "sourcePath": "C:/Users/Metodi/Desktop/TUM/SEBA Lab/Tesc/TeSC-Frontend-New/src/ethereum/contracts/registry/TeSCRegistryImplementation.sol",
  "compiler": {
    "name": "solc",
    "version": "0.7.5+commit.eb77ed08.Emscripten.clang"
  },
  "schemaVersion": "3.3.2",
  "updatedAt": "2021-02-04T18:33:19.133Z",
  "devdoc": {
    "kind": "dev",
    "methods": {},
    "version": 1
  },
  "userdoc": {
    "kind": "user",
    "methods": {},
    "version": 1
  }
}